:100000000C94C9040C94F1040C94F1040C94F104C4
:100010000C94F1040C94F1040C94F1040C94F1048C
:100020000C94F1040C94F1040C94F1040C94B806B3
:100030000C94F1040C94F1040C94F1040C94F1046C
:100040000C94EC100C94F1040C94F1040C94F10455
:100050000C94F1040C94F1040C94F1040C94F1044C
:100060000C94F1040C94F1040101FF030101F70366
:100070006C0068000500893008023802497868146D
:1000800000005830FFFFFFFFFFFFFFFFFFFFF0FF03
:10009000FFFFFFFFFFFFFFFFFFF0FFFFFFFFFFFF7F
:1000A000FFFFFFFFF0FFFFFFFFFFFFFFFFFFFFF07E
:1000B000FFFFFFFFFFFFFFFFFFFFF0FFFFFFFFFF5F
:1000C000FFFFFFFFFFF0FFFFFFFFFFFFFFFFFFFF4F
:1000D000F0FFFFFFFFFFFFFFFFFFFFF080000000CA
:1000E0007FFFFFFFFFFFF0800000007FFFFFFFFFAB
:1000F000FFF0800000007FFFFFFFFFFFF0800000A7
:10010000007FFFFFFFFFFFF0800000007FFFFFFF89
:10011000FFFFF0800000007FFFFFFFFFFFF0800087
:1001200000007FFFFFFFFFFFF0800000007FFFFF68
:10013000FFFFFFF0800000007FFFFFFFFFFFF08365
:1001400080007060018C7FC6001083E001F06001C8
:100150008C7FC6001083F807F060018C7FC600100A
:1001600083FE1FF063FF8C0FC63F1083F807F06318
:10017000FF8C0FC63F1083E001F063FF8C0FC63F7A
:10018000108380007060018C71C63F1080000000F9
:1001900060018C71C63F108000000060018C71C648
:1001A0003F10800000007FF18C7E063F1080000031
:1001B000007FF18C7E063F10800000007FF18C7E76
:1001C000063F108000000060018C7FC60010800098
:1001D000000060018C7FC6001080007C0060018CF4
:1001E0007FC600108003FE007FFFFFFFFFFFF0804F
:1001F0001FFE007FFFFFFFFFFFF0800000007FFF7A
:10020000FFFFFFFFF0800000007FFFFFFFFFFFF018
:10021000800000007FFFFFFFFFFFF0800000007FF5
:10022000FFFFFFFFFFF0800000007FFFFFFFFFFFE9
:10023000F0800000007FFFFFFFFFFFF0FFFFFFFFE8
:10024000FFFFFFFFFFFFF0FFFFFFFFFFFFFFFFFFCD
:10025000FFF0FFFFFFFFFFFFFFFFFFFFF0FFFFFFCC
:10026000FFFFFFFFFFFFFFF0FFFFFFFFFFFFFFFFAD
:10027000FFFFF0FFFFFFFFFFFFFFFFFFFFF0FFFFAC
:10028000FFFFFFFFFFFFFFFFF0FFFFFFFFFFFFFF8D
:10029000FFFFFFF016202D4E45204A410015202D6E
:1002A0004A410050525649203F00544B4F20494785
:1002B00052410016204E617374617669004E4552BA
:1002C0004A4553454E4F0016204E6173746176695E
:1002D00000504F52415A210016204E6173746176CE
:1002E0006900504F424A4544412100706F74657A5D
:1002F0000054766F6A00414920706F74657A000C73
:100300000C801040202040108009000600060009E3
:100310000010802040402080100C0C1F80204040A6
:1003200020801080108010801080108010402020CD
:10033000401F8016202D204E450015202D204441C1
:1003400000504F4E4F564E4F203F00494752414AB2
:100350000054300000000000000000000000000118
:10036000800180000000000000000180018000008A
:10037000000000000001800180000000000000007B
:100380000180018000000000000000018001800069
:10039000000000000000018001800000000000005B
:1003A0000001800180000000000000000180018049
:1003B000000000000000000180018000000000003B
:1003C00000000180018000000000000000018001A9
:1003D000800000000000000001800180000000009B
:1003E000000000018001800000000000000001808A
:1003F00001800000000000007FFFFFFFFFFE000003
:100400000000007FFFFFFFFFFE0000000000000172
:1004100080018000000000000000018001800000D9
:1004200000000000000180018000000000000000CA
:1004300001800180000000000000000180018000B8
:1004400000000000000001800180000000000000AA
:100450000001800180000000000000000180018098
:10046000000000000000000180018000000000008A
:1004700000000180018000000000000000018001F8
:1004800080000000000000000180018000000000EA
:1004900000000001800180000000000000000180D9
:1004A00001800000000000007FFFFFFFFFFE000052
:1004B0000000007FFFFFFFFFFE00000000000001C2
:1004C0008001800000000000000001800180000029
:1004D000000000000001800180000000000000001A
:1004E0000180018000000000000000018001800008
:1004F00000000000000001800180000000000000FA
:1005000000018001800000000000000001800180E7
:1005100000000000000000018001800000000000D9
:100520000000018001800000000000000001800147
:100530008000000000000000018001800000000039
:100540000000000180018000000000000000018028
:10055000018000000000000000000000000000001A
:1005600000000005003801680100000A0A153A4938
:10057000676E6F7265006D560A0A504C45415345CF
:10058000205455524E204F464620004C4F57204293
:1005900041545445525921200003053F213F120880
:1005A000120A100A0E1C0E0C1E0C141A14161F161A
:1005B0001E131E1E1B1E1E1F1E3F213F3A2F3A17E1
:1005C0003D173F213F181F02040A041F0E04040EAA
:1005D0001F0A1F0A0E0E1F04110E2E252E2F2A2E63
:1005E000262929021F02081F08150E04040E150EE5
:1005F00015151B151B040604040C0400000000174D
:10060000000300031F0A1F16371A1904130A153AAC
:10061000000300000E11110E000A040A040E04006B
:1006200030000404040010001804031F111F121FDF
:10063000101D151711151F07041F17151D1F151D58
:1006400001011F1F151F17151F000A0000320004AB
:100650000A110A0A0A110A040115020E11171E05D1
:100660001E1F150A0E110A1F110E1F15111F05015D
:100670000E111D1F041F111F1108100F1F041B1F37
:1006800010101F061F1E040F0E110E1F09060E115B
:100690002E1F051A121509011F011F101F0F180F19
:1006A0001F0C1F1B041B031C03191513001F110330
:1006B0000418111F000201022020200001020C1268
:1006C0001E1F120C0C12120C121F0C1A14041E0501
:1006D000242A1E1F021C141D1020201D1F08141187
:1006E0001F101E041E1E021C0C120C3E0A040C12CB
:1006F0003E1E040214160A020F120E101E0E100ED9
:100700001E081E120C1226281E322A26041E210044
:100710001F00211E040102013F213FF6E8DBCFC389
:10072000B8AEA49B928A827B746E68625C57524E0C
:100730004945413E3A3734312E2C2927252321457E
:100740000068010000172B152010204C4F41444534
:100750005200172B1620131400000000002400275D
:10076000002A0000000000250028002B000500687A
:1007700001380100001753440016137800161314B3
:10078000001510200015201000540A03E181867F17
:100790003E186D830F0F0E0183866033186DC319E9
:1007A0008F1803C38E6033186DE330CF1803C39ED8
:1007B000603630CDE360CF3006C79E7E3E30CDB38D
:1007C00060CF300CC6F6603330D9B660CF33CFCCB3
:1007D000F66061B0DB1E60CF30D86CE6C061B0DB84
:1007E0001E618F19986CC6C063B19B0E330F0FB09A
:1007F00078C6FF7E1F1B061E0F4020000000000071
:1008000000000000006000180000000000700038C8
:10081000000000000038007000000000001C00E034
:1008200000000000000E01C000000000000703806F
:100830000000000000038700000000000001CE005F
:10084000000000000000FC00000000000000780034
:100850000000000000007800000000000000FC3FE5
:10086000000000000001CEFFC0000000000387C1AF
:10087000E00000000007038070000000000E07C0C9
:1008800018000000001C0EE01C00000000380C7076
:100890000C000000007018380E00000000601818EE
:1008A000060000000000180006000000000018000C
:1008B00006000000000018000600000000001800FC
:1008C0000E00000000000C000C00000000000E00F4
:1008D0001C0000000000060018000000000003805B
:1008E00070000000000001C1E0000000000000FFF7
:1008F000C00000000000003F000000000A4E6F2012
:1009000053442063617264206F720A6E6F204C4FF3
:10091000414445522E4845580A0A153A45786974AB
:10092000001D20466C617368696E670A20206C6F39
:10093000616465722E2E2E0A0A444F4E27542054AD
:1009400055524E204F46462100000000002300264D
:100950000029000404040404040404020202020244
:100960000203030303030301020408102040800173
:1009700002040810200102040810200000000800F2
:100980000201000003040700000000000000000056
:10099000581A11241FBECFEFD8E0DEBFCDBF11E043
:1009A000A0E0B1E0E6ECF9E302C005900D92A834B6
:1009B000B107D9F723E0A8E4B1E001C01D92AF3D33
:1009C000B207E1F714E0C9ECD4E004C02197FE01BE
:1009D0000E94D61CC83CD107C9F70E94F9130C9499
:1009E000E11C0C940000CF92DF92EF92FF920F93E4
:1009F0001F93CF93DF936C017A018B01C0E0D0E0AD
:100A0000CE15DF0581F0D8016D918D01D601ED91F4
:100A1000FC910190F081E02DC6010995892B11F020
:100A20002196EECF7E01C701DF91CF911F910F91EB
:100A3000FF90EF90DF90CF900895FC01808191812D
:100A40008617970759F4228133818217930731F46F
:100A5000248135818217930709F454C04681578158
:100A60006417750759F4208531856217730731F4CF
:100A7000228533856217730709F444C024853585C0
:100A80006217730751F4A685B7856A177B0729F4A7
:100A9000A089B1896A177B07A9F18617970731F4F6
:100AA0008417950719F48217930761F142815381E6
:100AB0006417750751F4408551856417750729F44B
:100AC0004685578564177507E9F044815581641799
:100AD000750721F5A285B3856A177B0729F4A089DC
:100AE000B1896A177B0771F08617970769F4A085AB
:100AF000B1858A179B07C9F40088F189E02D8E170C
:100B00009F0781F481E008958085918568177907B2
:100B100061F481E06217730741F408C086179707F4
:100B200021F4E5CF64177507A1F380E00895EF92F3
:100B3000FF920F931F93CF93DF93CDB7DEB76297EA
:100B40000FB6F894DEBF0FBECDBFDE01119622E1D5
:100B5000FD0111922A95E9F77D019E012D5E3F4F1F
:100B6000FC0101911191CF01F701019311937F01D4
:100B7000E217F307A9F7FB01EE0FFF1FEA0FFB1FB8
:100B800051834083BA01CD010E941D0562960FB6C4
:100B9000F894DEBF0FBECDBFDF91CF911F910F91B3
:100BA000FF90EF9008958F929F92AF92BF92CF9255
:100BB000DF92EF92FF920F931F93CF93DF93CDB706
:100BC000DEB762970FB6F894DEBF0FBECDBF6A01E5
:100BD0008E010F5F1F4F22E1D8011D922A95E9F780
:100BE00078019E012D5E3F4FF801DC014D915D9132
:100BF000CD0141935193E217F307B9F7660F771FC1
:100C0000F801E60FF71FD182C082A12CB12C812CF4
:100C1000912CF701819191917F01892B39F4A601E3
:100C2000B501C8010E94970581110EC0FFEFAF1AF0
:100C3000BF0A89E0A816B10461F781E092E0891645
:100C4000910434F480E004C0AFEF8A1A9A0AEECF20
:100C500062960FB6F894DEBF0FBECDBFDF91CF9185
:100C60001F910F91FF90EF90DF90CF90BF90AF90CA
:100C70009F908F900895089580E090E00895CF921E
:100C8000DF92EF92FF92C090C903D090CA03C80EC2
:100C9000D91E81E08093AC030D2C000CEE08FF08F8
:100CA0008091C9039091CA03A091CB03B091CC036A
:100CB0008C159D05AE05BF0528F40E94BF0888234A
:100CC000E1F3EECF1092AC03FF90EF90DF90CF9066
:100CD00008950E94DC1CEF92FF920F931F93CF9315
:100CE000DF938C017B01C0E0D0E0F701EC0FFD1F2A
:100CF0006491662361F0D801ED91FC910190F0813F
:100D0000E02DC8010995892B11F02196EECFCE0177
:100D1000DF91CF911F910F91FF90EF900895611592
:100D2000710579F0FB0101900020E9F73197AF01DF
:100D3000461B570BDC01ED91FC910280F381E02D05
:100D4000099480E090E008950F931F93CF93DF9371
:100D5000EC010E946B068C016DE371E0CE010E94F4
:100D60008F06800F911FDF91CF911F910F910895F2
:100D70001F920F920FB60F9211242F936F937F93B0
:100D80008F939F9360914B01662359F180914801A5
:100D90008F5F8093480190914C01891710F1209149
:100DA0004E0181E0282720934E0110924801809146
:100DB0004D01882369F08091000193E4899F802D83
:100DC0001124895B809300010E94A21C90934A0128
:100DD000222329F080914A018093B40002C080E070
:100DE000FBCF9F918F917F916F912F910F900FBEAD
:100DF0000F901F901895FC0161110DC0178A158A7C
:100E000014A213A2108E10924A0110924B0110925C
:100E10004E011092B4000895EF92FF920F931F932A
:100E2000CF938C017B01C42F411103C060E00E946D
:100E3000FB06EC2FF0E0DF01AA0FBB1FA00FB11FD4
:100E40001E96FC92EE921D97DF011996AA0FBB1F0A
:100E5000A00FB11F1D921C92E00FF11F81E0818352
:100E600089E0868B118E138E158ECF911F910F9175
:100E7000FF90EF900895FC01643508F053C04033B3
:100E800008F050C090A1742F759575957595262F13
:100E9000062E000C330B542F57709230A1F4F90139
:100EA00084E57802E00DF11D1124E85AFE4F80819F
:100EB00090E0052E02C0959587950A94E2F78095FB
:100EC000982F91700AC0933041F484858170462731
:100ED00040954170841303C014C0911112C084E581
:100EE0007802200D311D1124F901E85AFE4F81E0EE
:100EF00090E001C0880F5A95EAF780959081892388
:100F000010C084E57802200D311D1124F901E85A42
:100F1000FE4F81E090E001C0880F5A95EAF790817A
:100F2000892B80830895EF92FF920F931F93CF93A5
:100F3000DF938C01F62ED42FE22EC0E0CE1544F4C0
:100F40006F2D6C0F4D2FC8010E943B07CF5FF6CF6E
:100F5000DF91CF911F910F91FF90EF9008952F9205
:100F60003F924F925F926F927F928F929F92AF9239
:100F7000BF92CF92DF92EF92FF920F931F93CF9386
:100F8000DF93EC016A3011F42885C1C06D3009F49B
:100F9000C5C0698483E586150CF4A3C07A848FE20A
:100FA00087150CF49EC008858C8190E00197089FFE
:100FB0009001099F300D1124C901860D911D67FC18
:100FC0009A95181619060CF08CC02D81872D072CC8
:100FD000000C990B029F800D911D11241816190603
:100FE0000CF07FC038A0462CC62CE62EF12CA02E8B
:100FF000002E000CBB08EC2DE6190E2E000CFF0B8A
:101000008C8190E0E817F9070CF06AC00197E817A7
:10101000F90779F0E89E9001E99E300DF89E300DB9
:101020001124E20FF31F8E8D9F8DE80FF91F14918D
:1010300001C010E0D72C572C252D2719022E000CAB
:10104000330B8D8190E0281739070CF046C010FF54
:101050001DC0013031F4452D6C2DCE010E943B079F
:1010600038C02D2C45018D0C911CD7FC9A94822DF3
:10107000022C000C990B881599055CF5202F422D48
:10108000642DCE010E9493072394F1CF89A198A1EA
:101090008917F9F088A3013031F4452D6C2DCE016C
:1010A0000E943B0715C02D2C45018D0C911CD7FCCF
:1010B0009A94822D022C000C990B8815990544F402
:1010C000202F422D642DCE010E9493072394F1CF4F
:1010D00038A216955394D00EAFCFC394400E8BCF49
:1010E00038A228853C818985239F800D112489871A
:1010F0009F81992399F0082E000C990B44E550E04C
:10110000239F401951091124481759073CF49D8128
:101110008A85299F800D11248A87198681E090E0B5
:10112000DF91CF911F910F91FF90EF90DF90CF90C3
:10113000BF90AF909F908F907F906F905F904F90F7
:101140003F902F900895EF92FF920F931F93CF93AC
:10115000DF938C01D62FF42EE22EC0E0CE1544F49E
:101160004F2D4C0F6D2FC8010E943B07CF5FF6CF6C
:10117000DF91CF911F910F91FF90EF9008954F92C3
:101180005F926F927F928F929F92AF92BF92CF9217
:10119000DF92EF92FF920F931F93CF93DF9300D0D4
:1011A00000D01F92CDB7DEB74091D8035091D9033C
:1011B0006091DA037091DB032FB7F89480914F01AF
:1011C00090915001A0915101B09152012FBF481B45
:1011D000590B6A0B7B0B8091D70390E0A0E0B0E045
:1011E0000091D3031091D4032091D5033091D603FD
:1011F00084179507A607B70730F4011511052105D7
:10120000310509F04AC3012B022B032B09F043C31C
:1012100080916F0381508E3F30F580916E03813055
:1012200011F5809182038F5F6091830387FD09C070
:10123000082E000C990B70E06F5F7F4F0E94AE1C70
:10124000682F6093820382E597E09093DD0380939B
:10125000DC0388E48093DE0340E06FE377E08DE712
:1012600093E00E940C0780916F0381508E3F70F4D1
:1012700080916D03813009F0E2C385E497E090939B
:10128000DD038093DC0388E48093DE0380E00E942A
:10129000C11280917E03882309F4ADC0809192032E
:1012A0008111A9C080918A0390918B03E0918F03F3
:1012B000F0919003EE0FFF1FE80FF91F2591349175
:1012C0002115310541F520918E03222331F0109232
:1012D000900310928F03FC0115C010927E03809141
:1012E0007D03882391F080E00E94C112E0918F037A
:1012F000F0919003EE0FFF1F80918A0390918B0372
:10130000E80FF91F2591349106C060E08DE793E066
:101310000E94FB0670C0A9015695479556954795C2
:1013200020FF49C0C901F6E096958795FA95E1F747
:101330008F71932F96959695969590514F70423058
:10134000E9F040F44423A1F0413059F560E00E94F7
:10135000011327C04330E1F0443019F52091810397
:10136000289F802D112480939A0390939B0319C08A
:101370008B3008F08AE08093930313C0209181039F
:10138000289F802D1124809396039093970309C082
:1013900020918103289F802D11248093980390939E
:1013A0009903E0918F03F09190033196F0939003AD
:1013B000E0938F039FCF4F734093910380918103FC
:1013C000839F802D1124809392031092A203109288
:1013D000A1031092A00381E08093940380934E01B7
:1013E0001092950380918F039091900301969093B2
:1013F000900380938F0380919403882309F4F3C0B2
:1014000080919203811106C060E08DE793E00E9415
:10141000FB06E9C08150809392038091A203811161
:1014200048C02091A0033091A1032F5F3F4FC90115
:10143000880F991FE0919C03F0919D03E80FF91F1D
:1014400065917491862F87708093A303AB0163E04D
:10145000569547956A95E1F7CA0196958795972F16
:10146000969596959093A4038F7390918103899F8D
:10147000802D11248093A203417040934D0130933D
:10148000A1032093A00380919E0390E028173907C1
:1014900080F020919F03222339F0821B91099093C1
:1014A000A1038093A00305C060E08DE793E00E9454
:1014B000FB068091A20381508093A2038091950343
:1014C00021E0280F20939503409191033091A403CC
:1014D000340F80918903380F30937F036091980314
:1014E000662371F070E0822F022E000C990B0E948F
:1014F000AE1C80919903869F300D112430937F0399
:1015000080917F0390E0849664E270E00E94AE1CBC
:1015100080937F033091930330938003609196030F
:10152000662381F0062E000C770B822F022E000C12
:10153000990B0E94AE1C80919703869F300D112459
:101540003093800360919A036623A1F0822F220FCB
:10155000990B70E00E94AE1CCB0162E070E00E942B
:10156000AE1C20919B0390918003289F900D112425
:10157000909380034F3351F0809180038A300CF0B8
:1015800089E087FD80E08093800302C01092800391
:10159000F894E0917F03F0E0E55EF84FE491E0938A
:1015A0004C01309180032091A50332039001112456
:1015B0004091A3034203C001439F900D112400906A
:1015C000820302C0880F991F0A94E2F797FF02C0B6
:1015D00081589F4F880F892F881F990B80934B014B
:1015E00080934A0178948091DE03882309F49CC09B
:1015F0008C3020F43CE0381B398301C0198281E033
:101600008093AE031092C6031092C7034091AB03C0
:101610004D83842F8D5F1981141B0DE2010FE82E7D
:10162000880FFF08E00EF11C07FDFA94802F002EB2
:10163000000C990B8E159F054CF42EE4402F63E0AF
:1016400086EA93E00E9493070F5FF0CF5D815450CC
:101650005D83105D252F41E0612F80E50E945D12C2
:101660002D8142E0612F83E00E945D1281E0809332
:10167000C6038093C7030091AB031981101B8DE251
:10168000810F8D832EE4482F63E086EA93E00E9469
:10169000930783E0800F9D81980F9D83492F4150D0
:1016A0002EE463E086EA93E00E9493070350105D06
:1016B000202F412F60E086EA93E00E94A308202FAC
:1016C000412F63E586EA93E00E94A30841E0612F81
:1016D00083E00E94DE1142E0612F80E50E94DE116E
:1016E000AD81A450AD8344E06A2F80E50E94DE11F5
:1016F00048E06D8183E00E94DE1184E08093AF03B7
:101700008091AB03B981B81BB15DB093B003609118
:10171000DC037091DD0386EA93E00E946B06809102
:10172000DE0381508093DE038091740390917503F2
:10173000892B09F488C021E02093C6031092C703C7
:101740009091AA0385E5891B8093AF031092B003A3
:1017500080917103813009F459C030F09091700389
:10176000853008F06BC066C060E08DE793E00E94B2
:10177000FB0610927E0331E03093AE03E9E9F5E019
:10178000E491EF5FE093AA03EAE9F5E0E491EF5F0B
:10179000E093AB038BE995E09093C5038093C4037A
:1017A00010927503109274031092AC0348EA4983B7
:1017B0000E94BF088823E1F36BE875E086EA93E0B6
:1017C0000E946B06609172037091730380E090E059
:1017D0004AE00E94901166E775E086EA93E00E9475
:1017E0006B06698162956F7070E080E090E04AE07E
:1017F0000E9490116BE675E086EA93E00E946B060A
:1018000080916D03813009F0FEC01DC08091C90335
:101810009091CA03A091CB03B091CC038F7099270C
:10182000AA27BB270897A105B10510F487E009C0D6
:1018300088E707C0992339F08B5F03C0992319F01B
:101840008FE20E94D3110E9455118091AC03811147
:101850000EC088EF91E0E8E5F1E0DF019C011D9208
:1018600021503040E1F71092AF031092B0030E9474
:101870008D106093D3037093D4038093D50390931A
:10188000D6032091CF033091D003621B730B70936A
:10189000CE036093CD0380E0D8C02FB7F894809139
:1018A0004F0190915001A0915101B09152012FBF71
:1018B0002091D703820F911DA11DB11D8093D803E4
:1018C0009093D903A093DA03B093DB038091C9030B
:1018D0009091CA03A091CB03B091CC030196A11DB6
:1018E000B11D8093C9039093CA03A093CB03B09317
:1018F000CC031092D3031092D4031092D50310920C
:10190000D6030E948D106093CF037093D003809311
:10191000D1039093D2038091590390915A032FE001
:10192000289FA001299F500D11245A83498385E1E6
:101930000E947610A981BA818A0F9B1F24E0969598
:1019400087952A95E1F790935A0380935903209144
:101950005803222309F44BC060915C03262F30E02A
:1019600040E050E029833A834B835C83C0905D0361
:10197000D12CE12CF12C40916003509161034A017C
:10198000A12CB12C20915E0330915F032901612CC1
:10199000712C8217930728F09C014817590708F407
:1019A0009A01C901A0E0B0E09C01AD0124193509FC
:1019B0004609570969817A818B819C816C197D095F
:1019C0008E099F090E94921CA501940124193509D2
:1019D000460957090E94051BC20ED31EE41EF51EC0
:1019E000C0925B036C2D70E085E00E9417100E948E
:1019F0003E138091740390917503892B11F00E941E
:101A0000C21381E022C0B981B150B983B111D0CEE7
:101A100060E070E085E00E94171083B7817F8460EA
:101A200083BF83B7816083BF83B7816083BF88959D
:101A300083B78E7F83BF83B78E7F83BFB9CE893252
:101A400009F024CC0E94891321CC0F900F900F90A5
:101A50000F900F90DF91CF911F910F91FF90EF901A
:101A6000DF90CF90BF90AF909F908F907F906F90BE
:101A70005F904F9008952F923F925F926F927F9266
:101A80008F929F92AF92BF92CF92DF92EF92FF928E
:101A90000F931F93CF93DF93EC01F901E4903196FC
:101AA000849164350CF019C10E2C000CFF08062F30
:101AB000062E000C110BF701E00FF11F1E161F067A
:101AC0000CF00BC140330CF008C1A82FC42E042E1B
:101AD000000CDD085601A80EB11C87FDBA941A143B
:101AE0001B040CF0FAC02E5F3F4F570197E0A90E80
:101AF000B11CB7FE04C05701BEE0AB0EB11CB3E091
:101B0000B594A794BA95E1F747FF0AC0A42FA80F90
:101B1000AC9CC001AD9C900D1124281B390B40E0FA
:101B20008A2F0A2E000C990B840F911D47FD9A9560
:101B3000C19714F0A0E3A41BF8A067FD60E0E535B1
:101B4000F10514F0E4E5F0E09E2FCC85C427C62E05
:101B5000062E000CDD08F601E01BF10B8F014F0192
:101B6000F7E08F229924E0E8F0E002C0F595E795D0
:101B70008A94E2F77E2F17FF02C0095F1F4FF3E040
:101B800015950795FA95E1F7200F311F542F5770DF
:101B900081E001C0880F5A95EAF74595459545952E
:101BA000F601B4E54B02E00DF11D1124AF01485AD6
:101BB0005E4FD0E02A2EAA0F3308EE24E394BB2414
:101BC000ED2FF0E0E215F3050CF087C0F901549019
:101BD000F1E0FF121AC0962E8A01E72F69019916CB
:101BE00008F072C08E2E852021F0D8018C90882AB2
:101BF0008C92E69531F4BFEFCB1ADB0AF6015490D4
:101C0000E0E893940F5F1F4FEACFF1101CC0782ECD
:101C10007094962E8A01E72F6901991608F054C036
:101C20008E2E852021F0D8018C9087208C92E6950D
:101C300031F4BFEFCB1ADB0AF6015490E0E893943D
:101C40000F5F1F4FEACFF3E0FF1629F0962E8A01AF
:101C5000E72F690137C0682E6094862E8A01972E7F
:101C600069018916D8F4E92DE52159F0D801EC91E4
:101C7000782C7C2670FE02C0E82B02C0E621D80139
:101C8000EC93969439F4BFEFCB1ADB0AF60154902B
:101C9000E0E89E2E83940F5F1F4FE3CFCE2514C044
:101CA0008E2E852021F0D8018C9088268C92E69586
:101CB00031F4BFEFCB1ADB0AF6015490E0E89394BD
:101CC0000F5F1F4F991660F3880F19F44C5A5F4F3E
:101CD00081E0DF5F2A0D3B1D73CFDF91CF911F9114
:101CE0000F91FF90EF90DF90CF90BF90AF909F90BB
:101CF0008F907F906F905F903F902F90089540E07D
:101D000063E675E00C940C07CF92DF92EF92FF929E
:101D10000F931F93CF93DF938091C803882309F417
:101D2000E2C081E08093AE031092AD031092AC0349
:101D3000109270038093C6038093C703CBEFD8E063
:101D40001CE00E94BF088823E1F3FE0184918823F0
:101D500019F00091AB0301C000E029E837E040E052
:101D600060E086EA93E00E943B0D4CE0400F29EFD3
:101D700037E060E086EA93E00E943B0D1092AF03EB
:101D80001093B0036BEF78E086EA93E00E946B0655
:101D90008091AA03982F990F890F81958D5A80936E
:101DA000AF038091AB03982F990F890F8195835DC5
:101DB0008093B0038091C90384FF03C065E877E096
:101DC00002C061E877E086EA93E00E94A406809171
:101DD000AA03982F990F890F81958D5A8093AF038D
:101DE0008091B0038F5F8093B0038091820388233A
:101DF00019F06DE777E002C069E777E086EA93E0E3
:101E00000E94A4068091AA03982F990F890F8195AB
:101E10008D5A8093AF038091B0038F5F8093B0039E
:101E200065E777E086EA93E00E94A40680916E035E
:101E30008130C9F4809182038F5F6091830387FDB5
:101E400009C0082E000C990B70E06F5F7F4F0E9455
:101E5000AE1C682F6093820340E06FE377E08DE76C
:101E600093E00E940C0780916D038130A9F080916E
:101E7000C803482F50E060E070E0C090C903D090E4
:101E8000CA03E090CB03F090CC03C416D506E60657
:101E9000F70608F18F3FF9F08FEF8093C803109297
:101EA0009403109292031092A1031092A003109237
:101EB000950310924A0110924B0110924E0110921C
:101EC000B40010927E038DE793E00E947F0E81E0C4
:101ED0008093700308C080916F03813009F031CF87
:101EE0000E9489132ECFDF91CF911F910F91FF9008
:101EF000EF90DF90CF90089540E06DE677E08DE7BA
:101F000093E00C940C07833081F028F4813099F031
:101F10008230A1F008958730A9F08830B9F084307C
:101F2000D1F4809180008F7D03C0809180008F77F5
:101F300080938000089584B58F7702C084B58F7D2B
:101F400084BD08958091B0008F7703C08091B00068
:101F50008F7D8093B00008951F93CF93DF93282F38
:101F600030E0F901E558F64F8491F901E959F64F4F
:101F7000D491F901ED5AF64FC491CC23C1F0162F3C
:101F800081110E94830FEC2FF0E0EE0FFF1FED593F
:101F9000F84FA591B4919FB7F894111104C08C919A
:101FA000D095D82302C0EC91DE2BDC939FBFDF914C
:101FB000CF911F910895CF93DF9390E0FC01E959F1
:101FC000F64F2491FC01ED5AF64F8491882361F17C
:101FD00090E0880F991FFC01E75AF84FC591D49102
:101FE000FC01ED59F84FA591B491611109C09FB75B
:101FF000F8948881209582238883EC912E230BC04E
:10200000623061F49FB7F8948881322F3095832332
:102010008883EC912E2B2C939FBF06C08FB7F8942A
:10202000E8812E2B28838FBFDF91CF9108951F93D6
:10203000CF93DF93182FEB0161E00E94DB0F209715
:1020400011F460E004C0CF3FD10539F461E0812F85
:10205000DF91CF911F910C94AC0FE12FF0E0E55888
:10206000F64FE491E330F9F048F4E130B9F0E230B2
:10207000A1F584B5806284BDC8BD34C0E730E9F005
:10208000E83019F1E43049F5809180008062809356
:102090008000D0938B00C0938A0024C084B58068F0
:1020A00084BDC7BD1FC08091800080688093800080
:1020B000D0938900C093880015C08091B0008068DB
:1020C0008093B000C093B3000DC08091B0008062D7
:1020D0008093B000C093B40005C0C038D1050CF0A7
:1020E000B5CFAFCFDF91CF911F9108958E3008F01B
:1020F0008E508770806480937C0080917A00806429
:1021000080937A0080917A0086FDFCCF80917800E0
:102110002091790090E0922B08953FB7F894809138
:10212000540190915501A0915601B091570126B5E7
:10213000A89B05C02F3F19F00196A11DB11D3FBFFF
:10214000BA2FA92F982F8827820F911DA11DB11D8D
:10215000BC01CD0142E0660F771F881F991F4A9589
:10216000D1F708958F929F92AF92BF92CF92DF9254
:10217000EF92FF926B017C010E948D104B015C017C
:10218000C114D104E104F104F1F00E948D10DC01CE
:10219000CB0188199909AA09BB09883E9340A1057A
:1021A000B10570F321E0C21AD108E108F10888EE08
:1021B000880E83E0981EA11CB11CC114D104E10457
:1021C000F10419F7DDCFFF90EF90DF90CF90BF9033
:1021D000AF909F908F9008951F920F920FB60F921D
:1021E00011242F933F938F939F93AF93BF9380912D
:1021F0004F0190915001A0915101B0915201309145
:10220000530123E0230F2D3720F40196A11DB11DAA
:1022100005C026E8230F0296A11DB11D209353018E
:1022200080934F0190935001A0935101B0935201BC
:102230008091540190915501A0915601B0915701A0
:102240000196A11DB11D8093540190935501A09357
:102250005601B0935701BF91AF919F918F913F91DC
:102260002F910F900FBE0F901F901895CF93C82FEE
:10227000F89460E08091B5030E94AC0F8091B603A2
:1022800018161CF460E00E94AC0FCEBD00000DB427
:1022900007FEFDCF8EB58091B60318161CF461E0E1
:1022A0000E94AC0F7894CF9108950F931F93CF9312
:1022B0008091B2038F5F8093B20308E511E0C0E024
:1022C0008C2F80640E94361180E80E94361161E0F4
:1022D0008091B5030E94AC0F8091B60318161CF4D0
:1022E00060E00E94AC0FF80184E591919EBD000072
:1022F0000DB407FEFDCF9EB58150B9F78091B603AE
:1023000018161CF461E00E94AC0FCF5F0C5A1F4FEF
:10231000C630B1F680E4CF911F910F910C94361125
:102320008F929F92AF92BF920F931F93CF93DF93A1
:10233000CDB7DEB7A1970FB6F894DEBF0FBECDBF05
:1023400019A2423008F44AE08E010F5D1F4F842E1F
:10235000912CA12CB12CA50194010E94371BE62FD2
:10236000B901CA0101501109EA3014F4E05D01C05D
:10237000E95CD801EC93232B242B252B61F7B801C2
:1023800086EA93E00E948F06A1960FB6F894DEBF0E
:102390000FBECDBFDF91CF911F910F91BF90AF9036
:1023A0009F908F900895E091A603F091A70301906C
:1023B000F081E02D682F86EA93E00994AF92BF92F6
:1023C000CF92DF92EF92FF920F931F93CF93DF9301
:1023D000182F062FC1E0D3E08AEFD82E9EEFE92E0A
:1023E000842F8470C82E842F8270B82E842F88701A
:1023F000A82E4170F42E8C2F880F8F5FE80ECC2012
:1024000081F0402F4D0F612F6C0F86EA93E00E9400
:102410003B07402F4C0F6D2F610F86EA93E00E941F
:102420003B07BB2081F0402F4D1B612F6C0F86EACC
:1024300093E00E943B07402F4C1B6D2F610F86EAF3
:1024400093E00E943B07AA2081F0402F4C0F612FA0
:102450006D1B86EA93E00E943B07402F4D0F612FD2
:102460006C1B86EA93E00E943B07F1100AC0CD176F
:10247000CCF4E7FC04C0D150D394D394ED0CCF5FDF
:10248000BACF402F4C1B612F6D1B86EA93E00E9450
:102490003B07402F4D1B612F6C1B86EA93E00E9487
:1024A0003B07E5CFDF91CF911F910F91FF90EF9008
:1024B000DF90CF90BF90AF9008959F92AF92BF9260
:1024C000CF92DF92EF92FF920F931F93CF93DF9300
:1024D000F82EE62EB22E13E0120FD0E0C3E08AEF02
:1024E000C82E0EEF842F8170982EAA24A394A20EDA
:1024F0004270D42EDF5F812F8B19080F9920A1F035
:102500002C2F220F2A0D4E2D4C1B6D2F6F0D86EA9E
:1025100093E00E94A308212F4E2D4D1B6C2F6F0DB1
:1025200086EA93E00E94A308D1100AC0DC17ECF4FD
:1025300007FD04C0C150C394C3940C0D1E5FDACFD5
:102540002C2F220F2A0D4E2D4C1B6F2D6D1B86EA52
:1025500093E00E94A308212F4E2D4D1B6F2D6C1B65
:1025600086EA93E00E94A308E1CFDF91CF911F910B
:102570000F91FF90EF90DF90CF90BF90AF909F9022
:102580000895CF93DF93482F50E0EA01C85ADC4FFB
:102590009DA1992399F19EA1911130C09EA5FA01A8
:1025A000EE0FFF1FE15AFC4F35A126A1E32FF22FBA
:1025B000E90FF11DE90FF11D259134912F3F9FEF98
:1025C000390711F41DA21AC039AB440F551FFA0187
:1025D000EE59FC4F3327220F331F05A0F6A1E02D43
:1025E000E20FF31F65917491811105C040E08DE702
:1025F00093E00E940C078EA58F5F8EA7DF91CF918D
:10260000089570E0DB01AA0FBB1FA85ABC4FD496F7
:102610002C91D497D5969C91D597E22FF92FE80F5E
:10262000F11DE80FF11D259134915F9696963C932C
:102630002E939597F9018591949190918103989F9C
:10264000802D1124685A7C4FFB01EA5BFF4F808389
:10265000F901A591B4914B2F50E0E82FF0E04E170F
:102660005F0720F4F90125913491832FFB01E95B89
:10267000FF4F989F802D112480830895DF92EF9261
:10268000FF920F931F93CF93DF93C8E5D3E00FE53D
:1026900013E0EE24EA9462E08A850E94DB0F2A852B
:1026A00030E0F901E558F64F8491F901E959F64F08
:1026B000F490F901ED5AF64FD490DD2071F08111BC
:1026C0000E94830FED2DF0E0EE0FFF1FE75BF64F4A
:1026D000A591B491EC91FE2299F489898F5F898B41
:1026E00060E08A850E94DB0F21960C171D0799F682
:1026F000DF91CF911F910F91FF90EF90DF900895A0
:102700008989882389F38F3F11F4198AE9CFE98AEF
:10271000E7CF88EF91E0E8E5F1E0DF019C011D9251
:1027200021503040E1F71092AF031092B00361E204
:1027300079E086EA93E00E946B060E9455118CB501
:1027400083608CBD8DB58E7F8DBD80E491E0EEEF12
:10275000FFE309951092AC036CEF78E086EA93E012
:102760000E94A4060E9455110E943E1380916D03A1
:10277000813039F062E370E080E090E00E94B210B6
:10278000F3CF089580917C038F7169F584E10E94F5
:102790007610BC01990F880B990B0E94991B26EEAD
:1027A0003FE34EEC50E40E94FD1B0E94681B9B011E
:1027B0007093730360937203672B91F084E08093AE
:1027C0007103E4E7F3E080E041915191241735076C
:1027D00018F48093710308958F5F8430A9F703C0C4
:1027E0008FEF8093710380917C038F5F80937C03D4
:1027F0000895CF93DF93CDB7DEB7C654D1090FB696
:10280000F894DEBF0FBECDBF789484B5826084BDDE
:1028100084B5816084BD85B5826085BD85B58160E4
:1028200085BD80916E00816080936E001092810062
:10283000809181008260809381008091810081601D
:1028400080938100809180008160809380008091DE
:10285000B10084608093B1008091B000816080936A
:10286000B00080917A00846080937A0080917A0031
:10287000826080937A0080917A00816080937A00F0
:1028800080917A00806880937A001092C10082E380
:102890008093D70381E090E0A0E0B0E08093D30381
:1028A0009093D403A093D503B093D6038FEF809376
:1028B000C803E0E8F7E7259134912130304C09F066
:1028C00049C0E6E9F7E7E491E093B103E7E9F7E708
:1028D000E491E0935C03E8E9F7E7E491E0935D03BA
:1028E000E9E9F7E78591949190935F0380935E0304
:1028F000EBE9F7E7859194919093610380936003EE
:1029000087E080938303EEE9F7E7E491E0938203A5
:10291000EFE9F7E7E491E093C803E0EAF7E7859190
:1029200094919093750380937403E2EAF7E785919D
:1029300094919093770380937603E4EAF7E7859187
:1029400094919093790380937803E6EAF7E7859171
:1029500094912CC09CE39093B10310925C038093FC
:102960005D0380E293E090935F0380935E0384EDC8
:1029700093E0909361038093600387E080938303E7
:10298000809382038CEA9DE0909375038093740397
:102990008EED9DE0909377038093760384E79EE02D
:1029A00090937903809378038CE39FE090937B036B
:1029B00080937A03FF24F394F09258036FEF70E052
:1029C00085E00E94171088E08093620389E080937D
:1029D000630387E08093640386E08093650354E09B
:1029E000E52EE092660382E08093670381E18093A5
:1029F00068030E943E138CE39FE0909373038093DF
:102A00007203E0927103F0927C038BE08093B40335
:102A10008DE08093B30380E18093B5038EE08093D3
:102A2000B7038FE08093B603F092AE03F092C60333
:102A30001092C703F092AD03E9E9F5E0E491EF5F8E
:102A4000E093AA03EAE9F5E0E491EF5FE093AB03DA
:102A50008BE995E09093C5038093C403FFB6F89487
:102A600080914901811127C0EDE5F9E08491E1E70A
:102A7000F9E09491E82FF0E0EE0FFF1FE75AF84FCE
:102A8000A591B491EC91E92321F461E08AE00E94E0
:102A9000AC0F61E08AE00E94DB0F8CB580618CBDD9
:102AA0008CB580648CBD61E08DE00E94DB0F61E03D
:102AB0008BE00E94DB0F809149018F5F8093490179
:102AC000FFBE8CB58F7D8CBD8CB58C7F81608CBD3D
:102AD0008DB581608DBD8CB58C608CBD61E08091C1
:102AE000B4030E94DB0F61E08091B3030E94DB0F0F
:102AF00061E08091B5030E94DB0F8091B703181647
:102B00001CF461E00E94DB0F8091B60318161CF4E0
:102B100061E00E94DB0F8091B703181674F460E047
:102B20000E94AC0F6AE070E080E090E00E94B2107A
:102B300061E08091B7030E94AC0F8091B303082E2F
:102B4000000C990BFC01ED5AF64FE491F0E0EE0F0A
:102B5000FF1FED59F84F259134913093BB0320931B
:102B6000BA03FC01E959F64FE491E093C103809167
:102B7000B403082E000C990BFC01ED5AF64FE491BA
:102B8000F0E0EE0FFF1FED59F84F2591349130938F
:102B9000B9032093B803FC01E959F64FE491E0939F
:102BA000C0038091B603082E000C990BFC01ED5A6E
:102BB000F64FE491F0E0EE0FFF1FED59F84F25912D
:102BC00034913093BD032093BC03FC01E959F64FC7
:102BD000E491E093C2038091B503082E000C990B99
:102BE000FC01ED5AF64FE491F0E0EE0FFF1FED59B6
:102BF000F84F259134913093BF032093BE03FC011D
:102C0000E959F64FE491E093C30381E20E94361143
:102C100084E10E9436118091B10387FF03C08FE7E2
:102C20008093B1038091B10380680E94361180E2E5
:102C30000E9436118CE00E9436110E94551181E0ED
:102C40008093810384E08093A50380E790E09093D4
:102C50008D0380938C0360E080E00E94011361E0AB
:102C600070E083E00E9417108091B100887F81603E
:102C70008093B100F894109280001092810010921D
:102C800085001092840088E191E090938900809300
:102C9000880080918100886080938100809181000C
:102CA00081608093810080916F00826080936F00CB
:102CB00078948091740390917503892B11F00E9490
:102CC000C21380916E03813019F4109282030BC0FD
:102CD000809171038823C9F340E064E770E08DE7D9
:102CE00093E00E940C0722E830E040E060E086EAD2
:102CF00093E00E943B0D84E190E00E943F060E9419
:102D0000840EC0907203D0907303C094D094E12CD1
:102D1000F12C0E948D104B015C010E948D10A501C9
:102D200094012095309540955095609570958095CB
:102D300090950E94921C9B01AC01C701B6010E94B4
:102D4000921C6B017C016091590370915A034B01F5
:102D5000A12CB12C0E948D10DC01CB01880D991D96
:102D6000AA1DBB1DBC01CD016C0D7D1D8E1D9F1DBF
:102D7000611571058105910511F00E94FC1A7E0113
:102D8000E5E2EE0EF11C51E3D52E6AE0C62E7DE1A0
:102D9000B72E0E94BF088823E1F380916D03813034
:102DA00009F079C28DE793E00E947F0E6624639458
:102DB00082E1F70111928A95E9F784E2E5E0F1E01A
:102DC000DE01119601900D928A95E1F788E0E9E223
:102DD000F1E0DE01D79601900D928A95E1F7712C12
:102DE000F1E02296FFAF229721E023962FAF2397A1
:102DF00092E0492E512C22E0222E312CCE01C79692
:102E000021969FAF8EAF21973AE0A32E41E3B42ED7
:102E10000E94BF088823E1F361E070E0C7010E94CF
:102E20001D058823A9F0B092AF03A092B00362EE13
:102E300072E086EA93E00E94A406B092AF0368EDC8
:102E400072E086EA93E00E94A40629E133E043C0E1
:102E500062E070E0C7010E941D05882399F0B092DE
:102E6000AF03A092B00361ED72E086EA93E00E94A6
:102E7000A406B092AF0367EC72E086EA93E00E948A
:102E8000A40627C0F70181919191892B71F12196B8
:102E90002EAD3FAD21972E173F07A9F730E33093B2
:102EA000AF03A092B0036DEB72E086EA93E00E945C
:102EB000A406B092AF0363EB72E086EA93E00E944F
:102EC000A40629E133E048E166E386EA93E00E9444
:102ED0003B0D2FEF32E048E166E386EA93E00E9483
:102EE0003B0D711002C07724739480916A03813086
:102EF00041F482E1481651040CF40DC230E1431A4A
:102F0000510880916C03813041F493E149165104DA
:102F10000CF005C280E1480E511C8091690381309C
:102F200041F4E2E12E1631040CF4FDC190E1291ABE
:102F3000310880916B03813041F4F3E12F163104A5
:102F40000CF0F5C1E0E12E0E311C80916D03813053
:102F500071F5662061F171102AC0FE013196C12C15
:102F6000D12C808191812816390609F0E4C1828133
:102F700093814816590609F0DEC1CC0CDD1C81E0B6
:102F800090E08C0F9D1FC80ED91EF60184A195A15B
:102F9000892B69F48DE793E00E947F0E81E090E039
:102FA000F60195A384A322961FAE2297612C8091EF
:102FB0006E03813009F4CBC180916F03813009F435
:102FC000DDC121E533E040E060E086EA93E00E9465
:102FD0003B0D2596FFAEEEAE25979E012F5F3F4F2E
:102FE00069014701F401819191914F01813091056F
:102FF00019F429E133E004C0029749F42FEF32E0DD
:10300000F6014281608186EA93E00E943B0DF4E084
:10301000CF0ED11CCE14DF0429F723962FAD2397B2
:10302000222341F1662031F1711024C02EE0DD240D
:10303000DA94D40C4D2DCC24CA94C20C6C2D86EAA3
:1030400093E00E9493072EE04CE0440D6C2D86EA3D
:1030500093E00E9493072EE04D2D6C2D86EA93E0BD
:103060000E94A3082EE04D2D6CE0620D86EA93E0ED
:103070000E94A3086091C9037091CA038091CB0399
:103080009091CC0325E030E040E050E00E94371BF7
:10309000672B682B692B41F423963FAD239781E082
:1030A000382723963FAF23976110B4C17110B0CE7B
:1030B00022969FAD22979923A1F00E94AE1A24E098
:1030C00030E040E050E00E94051B660F771FE1E012
:1030D000F0E0EC0FFD1FE60FF71F06A8F7A9E02DA3
:1030E0008EC04701C12CD12CF401819191914F01E7
:1030F000892B41F442E050E0B601C7010E949705D8
:10310000811118C02FEFC21AD20A39E0C316D104B8
:1031100059F74701C12CD12CF401819191914F01B4
:10312000892B51F441E050E0B601C7010E94970598
:10313000882311F0860162C08FEFC81AD80A99E07F
:10314000C916D10449F74701C12CD12CF401819152
:1031500091914F01892B09F416C1EFEFCE1ADE0AC7
:10316000F9E0CF16D10491F74701612C712CC12CE5
:10317000D12CF401819191914F01892B09F40DC15A
:10318000FFEFCF1ADF0A29E0C216D10491F731E030
:103190006316710409F41CC182E06816710409F415
:1031A00005C18DA59EA5892B09F419C180E090E089
:1031B0002596EEADFFAD259720813181232B09F4B3
:1031C0001DC1029634962596FFAFEEAF25978A3043
:1031D000910571F78FA198A5892B09F403C18BA5DF
:1031E0009CA5892B09F401C18FA598A9892B09F405
:1031F000FFC08BA99CA9892B09F4FDC0F801EE0F33
:10320000FF1F21E030E02C0F3D1FE20FF31F82E093
:1032100090E095A384A3B092AF03A092B00366EFB1
:1032200072E086EA93E00E946B062FEF32E048E1FD
:1032300066E386EA93E00E943B0D88E290E00E94FC
:103240003F0640E06FE377E08DE793E00E940C07D4
:1032500022961FAE229744E3D42ED092AF03A092C1
:10326000B00361EF72E086EA93E00E94A406D09278
:10327000AF036BEE72E086EA93E00E94A40629E1B8
:1032800033E048E166E386EA93E00E943B0D712C4F
:1032900066246394BDCD80916E03813031F48DE757
:1032A00093E00E947F0E612C83CD80916F0381306B
:1032B00069F121E533E040E060E086EA93E00E94B6
:1032C0003B0DD092AF03C092B0036AEA72E086EA87
:1032D00093E00E94A406D092AF0363EA72E086EA0C
:1032E00093E00E94A406D092AF036DE972E086EAF3
:1032F00093E00E94A406D092AF03B092B00364E9B9
:1033000072E086EA93E00E94A40643CD0E947C0FFF
:103310000E94840ECECF32E0432E512CF2CD22E219
:10332000422E512CFACD92E0292E312C02CE82E28F
:10333000282E312C0ACE2FEFC21AD20A349639E049
:10334000C316D10409F00DCEC12CD12C16CE772096
:1033500009F432CE8DE793E00E947F0EF1E3DF2E79
:10336000AAE0CA2EBDE1BB2E0E94BF088823E1F36C
:1033700080916D03813009F05CC04FC00E947C0FCA
:103380000E94840E1ECE42E050E0B601C7010E94AA
:10339000D305882309F4E1CECDCE41E050E0B6015B
:1033A000C7010E94D30581112BC0EACE8FA198A539
:1033B000892BC1F08BA59CA5892BB9F08FA598A965
:1033C000892BB1F08BA99CA9892B09F0EACE13C0F7
:1033D00026960FAD269727961FAD27970FCF04E0AF
:1033E00010E00CCF01E010E009CF03E010E006CFC1
:1033F00005E010E003CF07E010E000CF8C01FECE27
:103400002FEF621A720A2696CFAE26972796DFAE66
:103410002797B6CE7110FCCC1ECF8DE793E00E94AB
:103420007F0E80E090E0892B09F4ADCC0E94000073
:10343000AACC80916E03813089F180916F03813035
:1034400091F121E533E040E060E086EA93E00E94FC
:103450003B0DD092AF03C092B0036BE473E086EAF9
:1034600093E00E94A406D092AF0361E473E086EA81
:1034700093E00E94A406D092AF036AE373E086EA69
:1034800093E00E94A406D092AF03B092B00363E32E
:1034900073E086EA93E00E94A40666CF0E947C0F48
:1034A0000E94840ECACF0E947C0F0E94840EC9CF56
:1034B0001092A9031092A80385E391E09093A703CB
:1034C0008093A60308958F929F92AF92BF92CF925E
:1034D000DF92EF92FF92CF93DF93EC0168817981C5
:1034E0008A819B81611571058105910521F464E252
:1034F00079ED8BE597E02DE133EF41E050E00E945C
:10350000051B49015A019B01AC01A7EAB1E40E94E5
:10351000241B6B017C01ACEEB4EFA50194010E9469
:10352000321BDC01CB018C0D9D1DAE1DBF1DB7FFF5
:1035300003C00197A109B04888839983AA83BB83FC
:10354000BC01CD019F77DF91CF91FF90EF90DF908D
:10355000CF90BF90AF909F908F9008958F929F9241
:10356000AF92BF92CF92DF92EF92FF9260910101F2
:103570007091020180910301909104016115710520
:103580008105910521F464E279ED8BE597E02DE169
:1035900033EF41E050E00E94051B49015A019B01B5
:1035A000AC01A7EAB1E40E94241B6B017C01ACEEE4
:1035B000B4EFA50194010E94321BDC01CB018C0DFC
:1035C0009D1DAE1DBF1DB7FF03C00197A109B048E7
:1035D0008093010190930201A0930301B093040131
:1035E000BC01CD019F77FF90EF90DF90CF90BF900F
:1035F000AF909F908F9008956093010170930201A6
:1036000080930301909304010895052E97FB1EF407
:1036100000940E941C1B57FD07D00E94371B07FC1B
:1036200003D04EF40C941C1B509540953095219579
:103630003F4F4F4F5F4F08959095809570956195DE
:103640007F4F8F4F9F4F08950E94591BA59F900D4C
:10365000B49F900DA49F800D911D11240895B7FF74
:103660000C94241B0E94241B821B930B0895A1E23F
:103670001A2EAA1BBB1BFD010DC0AA1FBB1FEE1FEC
:10368000FF1FA217B307E407F50720F0A21BB30B37
:10369000E40BF50B661F771F881F991F1A9469F7B3
:1036A00060957095809590959B01AC01BD01CF010F
:1036B0000895A29FB001B39FC001A39F700D811D0B
:1036C0001124911DB29F700D811D1124911D08952B
:1036D0000E94DC1B88F09F5798F0B92F9927B751AB
:1036E000B0F0E1F0660F771F881F991F1AF0BA95A6
:1036F000C9F714C0B13091F00E94F61BB1E00895F3
:103700000C94F61B672F782F8827B85F39F0B93FE4
:10371000CCF3869577956795B395D9F73EF4909558
:103720008095709561957F4F8F4F9F4F0895E894D6
:1037300009C097FB3EF490958095709561957F4FF9
:103740008F4F9F4F9923A9F0F92F96E9BB279395A7
:10375000F695879577956795B795F111F8CFFAF4B7
:10376000BB0F11F460FF1BC06F5F7F4F8F4F9F4FE8
:1037700016C0882311F096E911C0772321F09EE846
:10378000872F762F05C0662371F096E8862F70E0AC
:1037900060E02AF09A95660F771F881FDAF7880F86
:1037A0009695879597F9089557FD9058440F551FA2
:1037B00059F05F3F71F04795880F97FB991F61F0B3
:1037C0009F3F79F087950895121613061406551F2A
:1037D000F2CF4695F1DF08C0161617061806991F96
:1037E000F1CF86957105610508940895E894BB278B
:1037F00066277727CB0197F908950E94101C0C9437
:10380000811C0E94731C38F00E947A1C20F09523C2
:1038100011F00C946A1C0C94701C11240C94F71B6E
:103820000E94D41B70F3959FC1F3950F50E0551F74
:10383000629FF001729FBB27F00DB11D639FAA2705
:10384000F00DB11DAA1F649F6627B00DA11D661F54
:10385000829F2227B00DA11D621F739FB00DA11D75
:10386000621F839FA00D611D221F749F3327A00D2F
:10387000611D231F849F600D211D822F762F6A2FCB
:1038800011249F5750409AF0F1F088234AF0EE0F30
:10389000FF1FBB1F661F771F881F91505040A9F75D
:1038A0009E3F510580F00C946A1C0C94F71B5F3FFF
:1038B000E4F3983ED4F3869577956795B795F79599
:1038C000E7959F5FC1F7FE2B880F911D9695879511
:1038D00097F9089597F99F6780E870E060E0089590
:1038E0009FEF80EC089500240A9416161706180618
:1038F0000906089500240A941216130614060506F4
:103900000895092E0394000C11F4882352F0BB0F84
:1039100040F4BF2B11F460FF04C06F5F7F4F8F4FE7
:103920009F4F0895DB018F939F930E94241BBF91AB
:10393000AF91A29F800D911DA39F900DB29F900DFE
:1039400011240895991B79E004C0991F961708F077
:10395000961B881F7A95C9F78095089597FB072EC7
:1039600016F4009407D077FD09D00E94C21C07FC12
:1039700005D03EF4909581959F4F0895709561957F
:103980007F4F0895AA1BBB1B51E107C0AA1FBB1F95
:10399000A617B70710F0A61BB70B881F991F5A95DB
:1039A000A9F780959095BC01CD010895EE0FFF1FFA
:1039B0000590F491E02D099481E090E0F8940C9446
:0639C000E11CF894FFCFAA
:1039C60001010000000200020012000200220002B3
:1039D6000002001200120012002200120002002251
:1039E6000012002200220022000000020006000849
:1039F6000000000000AF07F3043C063B060D0A007A
:083A06004C4F41444552000001
:00000001FF
